S0160000736F635F656D7074795F414B5F4B4D2E73333729
S214000000000001205D34000059340000593400001F
S214000010691B0000593400005934000059340000B0
S2140000205934000059340000593400005934000097
S2140000305934000059340000593400005934000087
S2140000405934000031700000593400005934000063
S214000050716800007D700000457000004970000067
S2140000603D70000059340000593400005934000037
S2140000705934000059340000593400005934000047
S2140000805934000059340000593400005934000037
S2140000905934000059340000593400005934000027
S2140000A05934000059340000593400005934000017
S2140000B0817000004170000059340000BD700000DF
S2140000C0593400000554000059340000593400002B
S2140000D059340000593400005934000059340000E7
S2140000E059340000593400005934000059340000D7
S2140000F059340000593400005934000059340000C7
S2140001005934000059340000593400000348044BA9
S214000110834202D0034B03B118477047C400002047
S214000120C4000020000000000548064B1B1AD90F2B
S21400013001EBA301491002D0034B03B118477047E7
S214000140C4000020C40000200000000010B5064CCB
S214000150237843B9FFF7DAFF044B13B10448AFF333
S21400016000800123237010BDC8000020000000009E
S21400017098B6000008B5054B1BB105490548AFF316
S2140001800080BDE80840FFF7CFBF00BF00000000BA
S214000190CC00002098B60000A3F5803A704700BF58
S2140001A0174B002B08BF134B9D46FFF7F5FF0021AA
S2140001B08B460F461348144A121A09F001F80E4BE4
S2140001C0002B00D098470D4B002B00D098470020FE
S2140001D0002104000D000D48002802D00C48AFF3A3
S2140001E0008008F0BBFF2000290002F011FA08F09A
S2140001F0A3FF00BF00000800000000000000000091
S21400020000000120C800002048190020000000005F
S21400021000000000BFF34F8F0549064BCA6802F482
S214000220E0621343CB60BFF34F8F00BFFDE700BF14
S21400023000ED00E00400FA0510B50246F8B1114BD7
S2140002401968888890421AD39888904281BF0968B6
S21400025099600120988099889868002420B904B194
S21400026098604FF6FF7203E08A4203D10CB19860A3
S2140002709A8010BD0131006889B20124EEE70020A3
S214000280F7E700BF8C100020114A916A01F1704315
S21400029003F5F813B3F5006F0CD2D2F82838A3F1A3
S2140002A07E62A2F58432B2F5104F03D20968094A7D
S2140002B0914203D000230370836070471968064A92
S2140002C09142F7D1012202709A6842609B69F3E777
S2140002D00000E10FAD1007B007B0CD5E1FB50C46AD
S2140002E040B901A8FFF7D0FF044B029A1A602360BA
S2140002F00423A380002004B010BD00BF78020020B5
S214000300064BD3F82828A2F17E63A3F58433B3F511
S214000310104F01D2536A1847002070470000E10FC3
S2140003200D4B10B4D3F82848A4F17E63A3F58433AC
S214000330B3F5104F0BD2246BA4F17E63A3F5843380
S214000340B3F5104F03D2A36B5DF8044B184740F289
S21400035001105DF8044B70470000E10F0B4BD3F81B
S2140003602828A2F17E63A3F58433B3F5104F09D293
S214000370126BA2F17E63A3F58433B3F5104F01D25E
S214000380D36B184740F20110704700BF0000E10F22
S2140003907FB50E4A03466D4602F110061068516896
S2140003A02C4603C40832B2422546F7D15A1E04A989
S2140003B00F3311F8014D12F8010F844204D19A420E
S2140003C0F7D1012004B070BD0020FBE7DC930000ED
S2140003D0F8B5184E306848BB174B184C184FE41A3F
S2140003E0184B1C4424F4FF6424F00704D7F8F830B4
S2140003F09BB2B4EB832F18D2656BC5B1D7F8F83033
S2140004009BB2B5EB832F12D2D7F8F82005F1500334
S21400041092B2B3EB822F0AD82846FFF7B9FF30B165
S214000420EB6933F0080302D034603068F8BD04F599
S2140004300064DBE77002002010000020C4000020EB
S2140004400081E00FEFBE000010B50C4648B9FFF77C
S214000450BFFF054B10B1426B126A1A60236004237B
S214000460A380002010BD00BF74020020084B40F29D
S21400047001121A604FF0FF329A6001225A6001445E
S21400048010F8012B9A618842FAD1D869C0437047A8
S21400049000C00140034B044A9979117500221A6086
S2140004A0704700BF400B0020D80A002030B500225D
S2140004B08BB01346D91003F00704415C2141CC07EA
S2140004C041BF02F128016944013201F8283C01339A
S2140004D0252BEFD10D4C0023D91003F00705415C06
S2140004E02941C9075FBFB3FBF2F102FB1131283186
S2140004F0694448BFD9B203F1010358BF11F8281C5C
S21400050004F8011F252BE7D10BB030BD010B0020EE
S21400051008B50348FFF7CAFF002340F8063C08BDAD
S214000520460B0020084A10B5136840F2E2446043C8
S21400053000F5807004FB013303EB5003136053682F
S2140005400344536010BD00BFD80A0020D0B50C4C41
S214000550E38C0A20584308F053FB0646A08C0F464F
S21400056008F04EFB074B002208F0B4FB02460B4691
S2140005703046394608F0D8FC08F0BEFD2083D0BDD2
S214000580D80A00200000F43F70B5094CB4F80710F4
S214000590A079B4F80960B4F80D50FFF7C3FF054B17
S2140005A09E84DD84FFF7D2FF0023236070BD00BF6A
S2140005B0400B0020D80A0020837DDB0701D5808A07
S2140005C07047D0E901239B1A44BF828A9B1898B2D1
S2140005D070470000084BD3F8F020D3F8F4300270D0
S2140005E0110A120C82701A0AC2701A0C1B0E417085
S2140005F002714371704700BF0081E00F034BD86B58
S21400060080F04000C0F38010704700BF00300E40FE
S21400061008B5FFF7F3FF20B1024AD2F8C830002B26
S214000620FBD108BD0000C64308B5FFF7F1FF024B3B
S2140006305868C0F3014008BD00300E400C4B98428D
S21400064005D90C4B984210D80122012301E0002264
S214000650134609490B640949D1F8003123F0807329
S21400066043EA0263C1F8003170470222EDE700BF9B
S2140006700048E8010090D0030000C84300400E4048
S2140006800F4B5B680F4B30B500221C46C9B21D7974
S2140006908D4202D11D6885420DD20132052A03F132
S2140006A00803F4D10321064A536823F0407343EA53
S2140006B00163536030BD04EBC2046179F3E700BF09
S2140006C000000E40B094000038B5074C0748256C73
S2140006D041F6713323640021ADB2FFF7D1FF0DB1AF
S2140006E00023236438BD00BF00000E4000F049021E
S2140006F038B5064C256C41F671332364ADB2FFF76E
S214000700BFFF0DB10023236438BD00BF00000E40BC
S21400071042EA0322B2F5007F10B5194C29D00AD858
S214000720B2F5807F22D040F201139A4215D062B90A
S214000730D4F81C320BE0B2F5407F1DD040F20133F6
S2140007409A4210D0D4F8283201E0D4F82432C3F309
S2140007500722DBB203600A6010BDD4F824321A0EFA
S214000760C3F30743F6E7D4F82832F8E7D4F81C3288
S214000770F5E7D4F82032EAE7D4F82032EFE700BFF6
S2140007800081E00F2F4B1A6FD96C11F0010F02F0A9
S214000790060242D0002A40D013284FD91438132816
S2140007A08CBF102308232749013BCA6C180322F488
S2140007B07F4240EA03231343CB64234BCA6C1B8857
S2140007C0C2F303222833013202EB820003EB530309
S2140007D0B3FBF0F3C86C013B072B28BF072320F0C0
S2140007E0EE6040EA036343F48013CB64174BB3F91F
S2140007F00030002B10DB2833500800EB420203EBDE
S2140008005303B3FBF2F30A6D072B28BF072322F02E
S214000810700242EA03130B657047D96C01F00101C0
S214000820114304D1092809D90A380928B8E7DB6C2E
S21400083013F00103B7D01AB92728B1E70423B2E7AB
S2140008400023B0E700300E405A0B0020580B002063
S21400085070B51D4DD5F82828A2F17E63A3F5843324
S214000860B3F5104FE0B001D2136B23B94FF4017407
S214000870204660B070BD5B6A4FF4C07269460020C7
S214000880984704460028F3D140F20126D5F82828D8
S214000890A2F17E63A3F58433B3F5104FE6D2126B54
S2140008A0A2F17E63A3F58433B3F5104FDED2936ACC
S2140008B0002168469847B042E8D040F203239842A9
S2140008C018BF0446D4E700BF0000E10F104A0B46ED
S2140008D0D2F82818A1F17E62A2F58432B2F5104F44
S2140008E010B40FD2096BA1F17E62A2F58432B2F584
S2140008F0104F07D20C69074A0146A44600205DF84F
S214000900044B60474FF481705DF8044B704700BF9E
S2140009100000E10FD006002037B50446684680E8A0
S214000920060003C8251D85E805002373069B0B4AB1
S2140009302361BDF81C30A38200232360136853B1E3
S21400094019461B68002BFBD10C609088013080B2E2
S214000950908003B030BD1460F7E700BF4C13002052
S21400096037B50D461446FFF767FC70B1036973B1DF
S214000970818A4FF6FE72914209D10095ADF8044087
S21400098069460120984703B030BD0120FBE70E20E2
S214000990F9E7036937B514460D46828A63B14FF608
S2140009A0FE718A4208D100200090ADF80400694626
S2140009B0984728B103B030BD2B6000202280F9E7AD
S2140009C0009B2B60BDF804302380F3E738B50D4656
S2140009D01446FFF731FC40B122462946FFF7D9FFFF
S2140009E010B92B6803B9208038BD0120FCE7000051
S2140009F007B503790193054A0368009306CA0223E4
S214000A000830FFF789FF03B05DF804FB7C94000014
S214000A10034B5A6D12B95865A3F85810704700BFBB
S214000A20D80A00200C4BD3F82838A3F17E62A2F532
S214000A308432B2F5104F10B50CD21968074A9142AD
S214000A4008D1074C2278012A04D11B6A984708B9B6
S214000A500223237010BD00BF0000E10F07B0CD5E7B
S214000A60E40000200C4BD3F82838A3F17E62A2F5F0
S214000A708432B2F5104F10B50DD21968074A91426C
S214000A8009D1074C227812F0FD0F04D1DB69984794
S214000A9008B90123237010BD0000E10F07B0CD5E3A
S214000AA0E400002008B50F4B0F4C1B784FF00055A4
S214000AB06BB1FFF7D7FF0D4B2B600123A3602368B4
S214000AC023F4E06343F480632360FFF7A3FB2B600B
S214000AD00123A360236823F4E06343F48063236068
S214000AE0FFF798FBBD06002000500E4002020FF0F4
S214000AF0054A08B5937E43F040039376034B0022E5
S214000B001A70FFF7CFFF00BFD80A0020541300204A
S214000B102DE9F04105460E461146FFF74DFD884289
S214000B2028BF084687B2B846B8F1000F09D12FB1E2
S214000B30AB7DDA0744BF23F00103AB753846BDE84A
S214000B40F081AA8A2B6869689C18641AA4B2444586
S214000B5028BF44462246304608F024FB6B682968C6
S214000B60AA8A23440A442644934228BF0B46A8EB8D
S214000B7004041FFA84F86B60D6E7F8B51F46038AAC
S214000B8004461646EBB9C57DDDB10123013D0B7069
S214000B900222C57500F11001FFF7BAFFE37D9BB195
S214000BA0228ABA4228BF3A4631462046FFF7B0FFAF
S214000BB0238A1B1A2382E37D13B9638A1B1A638276
S214000BC0F8BD00230B70EBE7638A2382E8E72DE984
S214000BD0F041868A04460F461146FFF7EDFC361AAA
S214000BE0B6B28E4228BF0E46B046B8F1000F0BD103
S214000BF03EB1D4E901329A4202BFA37D43F001031D
S214000C00A3753046BDE8F081A28A2368A0689D18C7
S214000C102D1AADB2454528BF45462A46394608F046
S214000C20C1FAA3682168A28A2B440A442F4493423F
S214000C3028BF0B46A8EB05051FFA85F8A360D4E786
S214000C40F8B5044616461F4611B3858AFFF7B4FC6E
S214000C502D1AADB2012D29D9E37D63B1658AE0680E
S214000C6005702D0A07D02268A38A013013449842E3
S214000C7028BF1046057000236382A368E360022243
S214000C8004F112012046FFF7A2FFE37D0133E3756E
S214000C903A4631462046FFF79AFF638A034463824A
S214000CA0E37D13B9238A03442382F8BD0020FCE7C2
S214000CB013B50379124A03330446019300F1440343
S214000CC0009306CA02231430FFF726FE238A0193F8
S214000CD0E368009394E80600237A04F12C00FFF7FB
S214000CE01BFE237A22792168A4F8450004F1470008
S214000CF084F8443002B0BDE8104008F053BA00BF94
S214000D008894000070B50C4C0C4B06460D4694E8D3
S214000D10030083E803001846FFF76AFE084BD4E991
S214000D20020102221A7283E80300DE601D82184662
S214000D30BDE87040FFF7BCBF64950000400100208E
S214000D40E80000202DE9F347DDF82880BDF82C9058
S214000D5004460E4617461D46FFF76EFA8246BAF15F
S214000D60000F01D0B44205D94FF6FF74204602B0FA
S214000D70BDE8F0879AF80830DAF804009D421AD1E8
S214000D802A46394608F0E4FAA8B9B8F1000FEDD0C3
S214000D900DF1020201A95046FFF7FBFD58B9019973
S214000DA049B1BDF802304B4505D14A46404608F0E9
S214000DB0CFFA0028DAD00134DAF800A0A4B2CEE7E1
S214000DC038B50C4611462568AD1A2A46014408F087
S214000DD0CFFA256038BD000001282DE9F34704D07E
S214000DE00024204602B0BDE8F0878B88012B40F037
S214000DF03C810B681B78FBB99E4A9F4C13609F4A48
S214000E0013709F4A13609F4A13609F4A13609F4A5D
S214000E1013609F4A13709F4A13609F4A13609F4A4D
S214000E2013702378022B01D1FFF7FCFD01232370FA
S214000E309B4B00221A70D3E7032B40F003818F4BA5
S214000E408D4E1C78002C4FD13378002B00F0F280AA
S214000E508F4B1B78082B02D0402B40F08A80DFF89F
S214000E601482D8F800305BB98E4DD5F82838A3F137
S214000E707E63A3F58433B3F5104F55D3802433E057
S214000E8013F003071CBFC7F10407FFB203EB070A02
S214000E90BAF5806F00F2D2808348DFF8F8913A46C0
S214000EA01844FF2108F08CF9804BD9F800501B68D5
S214000EB0C8F800A00AEB05029A4200F29480704B34
S214000EC01B681D445544DFF8C4A125F4FF65DAF815
S214000ED0000025F00705854210D9291A00F50060A4
S214000EE0FFF73CFA40B185243378022B01D1FFF797
S214000EF099FD0023337074E7CAF80050D8F8001044
S214000F00D9F80000FFF7E2FCD9F80030D8F8002046
S214000F10584913440546DB1B6348C9F80030FFF701
S214000F204FFF002DA0D0DEE7FFF792FCD8B9D5F82A
S214000F3028280190A2F17E63A3F58433B3F5104F01
S214000F40D1D2126BA2F17E63A3F58433B3F5104FB2
S214000F50C9D29369012101A898470028C3D14F4BF5
S214000F6001221A70C0E741F20803984286D186240F
S214000F70BAE7002B60D04A4B1B78002B3FF47EAFBD
S214000F80454F3B6843B9404B494918681022FFF764
S214000F90C7F90028A8D0A6E713F003021CBFC2F1C9
S214000FA00402D2B29D18B5F5806F47D84148DFF8E5
S214000FB0D480FF21184408F003F93F4A3F4BD8F885
S214000FC000103D609B1A3E4A13443E4A13408B4233
S214000FD036D83D4BD3F8F8309BB29B020D44A3F5B0
S214000FE08053AB4201D283247EE7DFF8A090D9F885
S214000FF000001540854209D9291A00F50060FFF760
S214001000ADF900287FF46FAFC9F800503A68294957
S214001010D8F80000FFF784F9D8F800303A681E497F
S214001020054613442348C8F80030FFF7C9FE002DD4
S214001030A9D058E7812457E7842455E7822453E74C
S214001040872451E7042B12D1204813230221437032
S2140010500170FFF7DDFC1E4A1E4B128905329A808E
S2140010601D4A1A6042789A71BAE60D24B9E606243B
S214001070B7E600BFD00A0020D50A0020D60A002016
S214001080C4060020B4020020B0020020C0060020E3
S214001090D40A0020CC060020B8060020BD0600209A
S2140010A0BC0600200000E10FD0060020C806002085
S2140010B0A0020020B802002010000020C40000207B
S2140010C0EFBE000000F8FFFF0081E00F340B0020A9
S2140010D0D80A0020400B0020F10A00002DE9F84F46
S2140010E0DFF85091494BD9F80050DFF84C81471B88
S2140010F082464748C8F800701B1A4648034423F443
S214001100FF6323F007039F42144678D3424BD3F87D
S214001110F8309BB29B020AEB0206A3F580539E4270
S21400112070D82C44B4F5806F03D93C4B82221A70D9
S21400113063E0DFF8FCB00BEB050008F033F8384B43
S214001140C9F800401A6822B9332C56D9DBF8342087
S2140011501A601B689F421FD89E421DD903F11002D9
S21400116096424AD31D44A5EB0A055D442D4A2B46FC
S21400117005F1100153F8040B42F8040B8B42F9D129
S2140011802848FFF705F910B9244B8422CFE7102230
S214001190FF21284608F014F8234D244B286804F055
S2140011A00304361B1E4058B907EA0300C0F5006169
S2140011B03144FFF7D3F82E6040B1184B8522B6E7CE
S2140011C0864203D9311A00F50060F2E7D9F800200C
S2140011D01749D8F80000121BFFF7A2F8D9F800202C
S2140011E0D8F800301349121B054613441048C8F8B7
S2140011F00030FFF7E5FD002DDFD1BDE8F88F074B87
S214001200872294E7054B832291E700BFC4000020A5
S21400121010000020EFBE00000081E00FD60A00207C
S214001220B0020020A0020020C006002000F8FFFF49
S214001230B8020020B8060020B402002037B5124CD1
S214001240002360600093437AD0E90021206802F012
S214001250C2FC238CDB050CD563680C4D1B7A2A7800
S2140012609A4206D0012B06D0022B08D063681B7A60
S2140012702B7003B030BD206802F088FCF6E72068CB
S21400128002F08AFCF2E700BF9810002060020020FF
S21400129013B50D4B0D4C1B8AADF804300128ADF884
S2140012A0003004BF02238DF8043001A908BF0423D0
S2140012B0206808BF8DF8003002F091FB2068694670
S2140012C002F0A3FB02B010BD649500009810002049
S2140012D0034B00221A6118680122032102F014B998
S2140012E09810002010B5164CA37E5B0626D4FFF798
S2140012F0EFFFA28C236840F2E24101FB0233236039
S21400130094F84F10A37A0B442521B3FBF1F001FBB0
S2140013101033A37223890133238163680A2101FBFA
S21400132002336360238B5A1E22833BB9A27E42F0AF
S2140013304002A276034A1370FFF7B4FB10BD00BF4D
S214001340D80A0020541300207FB502238DF80630FB
S214001350064B5A8B596918680332ADF804206A4662
S21400136002F0D2FB009807B05DF804FB981000204E
S21400137010B51E4C1946236986B023B3A2F10800A7
S214001380084322D101AA0321206802F0B9FB636852
S21400139060615B7A23769DF80430DA1F534253412E
S2140013A0627E63F30002039BE361BDF8063062765B
S2140013B0638304F1180102202369984720680122FC
S2140013C0002102F0A3FB06B010BD02F17F400843E7
S2140013D005D10021012006B0BDE81040184712F4E0
S2140013E0A0411ABF00210320FF20F4E79810002038
S2140013F02DE9FF41194C1A4D637A0133DBB2282BD5
S21400140028BF252320466372FFF718FF627D154923
S2140014102868D4F80C80667C4FF40073023202F021
S21400142051FB6B68104A5B7A06F001063046D75CC3
S214001430FFF72EFF00220123009203932868CDF8C1
S214001440088002AB394602F063F810B1FFF740FFA0
S214001450D2E7064B2B6104B0BDE8F081BC1000203B
S21400146098100020D0100020DF9400002515000002
S2140014702DE9FF41254CA37E5A0640D4244A2189F3
S21400148023F0070343F00103A37613681BB1928889
S2140014908A4200D19847A37A1E48234493F82A30FC
S2140014A06375FFF7CBFED4E900561B4C1B4A6368F6
S2140014B05B7A4FEA5608D75CA5EB56060120FFF785
S2140014C0E7FE643500964FF4807300264544ADF879
S2140014D00C306A4639462068029533468DF804601B
S2140014E08DF80E6002F020F801220546314620688D
S2140014F002F00CFB35B1FFF7F5FEFFF7B9FF04B0BD
S214001500BDE8F081064B2361F9E700BFD80A00204A
S214001510400B0020E40A002098100020DF94000012
S2140015208D16000002282DE9F0411DD002D80128B2
S21400153007D0FEE7032800F09E80FF2800F09B807F
S214001540F7E74E4C637C990707D5FFF7C1FEFFF718
S2140015504FFF637C6FF341036374637CDA0768D4E0
S214001560BDE8F041FFF744BF4B78DB0740F18380CE
S2140015704C68227802F00F08B8F1030F5BD0B8F180
S214001580050F78D13E498B7B03F00103B3EBD21FE6
S2140015904FD10622083104F1080007F0D9FE0646AE
S2140015A0002846D1FFF794FEFFF7CEFE354D3146B4
S2140015B007465C22284607F003FEAB7EA5F8188097
S2140015C043F02003AB76627E237E43EA0223AB849D
S2140015D0627F237F43EA0223EB8494F82330C3F32D
S2140015E0040385F84F3094F82330C3F3421385F88C
S2140015F0503004F11E001B232B85FEF757FFD4F84E
S2140016000E30E27CEB60A37C2F6043EA0223227D4F
S214001610607D43EA02432B61012695F84F30AB729A
S2140016202E75E18A3144FEF77DFFFFF721FF164B4A
S2140016301E70BDE8F081124DAB7B03F00103B3EBE7
S214001640D21FF6D1062205F1080104F1080007F0C2
S2140016507FFE0028EDD1094C286894F83D204FF411
S2140016600073023204F13C0102F02CFA637C43F072
S21400167002036374DDE7FFF72BFE71E7BC10002062
S21400168098100020D80A00205413002002282DE9C4
S214001690F74F0F460BD003D8012800F0D781FEE79E
S2140016A0032800F0DB81FF2800F0D881F7E74E78AA
S2140016B04A68B34D16F0010661D10026AB7EB14CE8
S2140016C013F0200F12D0696D6FF34513AB76002927
S2140016D000F0C580237895F85820627043F0030325
S2140016E0A01C237007F05EFD00236B65A648A54985
S2140016F0FEF762FFAB7E003818BF012060F341039F
S214001700C3F3C002AB76C3F300139B0043EAC203E5
S214001710227843EA001322F01C02134362782370F7
S2140017209A4C02324FF400732068D2B202F0CAF923
S214001730AB7E7F68D90709D56FF30003AB7600232D
S2140017406B60FFF701FE2860FEF700FF002E00F03A
S214001750F9803B7803F00303022B00F05F81032B34
S21400176000F09480012B40F0ED8089487D78818AD6
S214001770FEF722FF081ABC1C80B200265BE1137835
S214001780AC7EC3F3001363F382041378AC76C4F321
S2140017900011C3F3C00C8C45E0B2C3F3800AC4F357
S2140017A0C0040CD0544588D0AB7E84F00104E4001D
S2140017B044F0200423F028031C43AC767DE703F0B6
S2140017C00303022B18D0032B04D0012BEAD14FF0D1
S2140017D0000B12E0544508D084F00104E40044F005
S2140017E0200420F028031C43AC76AB7E81F0010178
S2140017F061F30413AB7661E7B34692F80180B8F163
S214001800000F0ED1544501D10026EEE7AB7E84F0E2
S2140018100104E40044F0200423F028031C43AC76C3
S214001820F2E75B48B0F81490FEF7C6FEA9EB00009E
S21400183080B2BBF1000F03D00228B3D9023880B2C1
S214001840544509D0AB7E84F00104E40044F0200443
S21400185023F028031C43AC768045C6D92DE795F8BF
S21400186028304948A21C0DF10701FFF786F910F051
S214001870FF0018BF9DF80730227860701ABF01334A
S214001880DBB2012363F3010222702FE7BB780C2B37
S2140018900AD80C2B0AD8DFE803F03F2B58090909B1
S2140018A00909600909091800142B7FD0394A1278F3
S2140018B02AB1162B00F09680182B00F0A28036482E
S2140018C007220270437002210DE033480C234FF0CC
S2140018D0FF320370012343708270037102220023DB
S2140018E0C2704371062103B0BDE8F04FFFF790B811
S2140018F0797A3B7A294A43EA01239380134628499A
S21400190043F8061BD7F80310C2F80610B7F80720EE
S2140019109A807A7A9A7115E07A7B3B7B1F4943EA74
S21400192002238B800B461F4A43F8062BD7F803206A
S214001930C1F80620D7F807205A60B7F80B201A819E
S2140019407A7B9A7203B0BDE8F08F2A89134B053272
S2140019509A80154A1A60FA78DCE7D7F80330228CAA
S2140019600D48134003F0FF0322F0FF021343024624
S214001970092102F8011BC0F8013000235360B2E7CA
S214001980D80A002060010020A00D0020981000203A
S214001990341300205E0B0020340B0020400B002088
S2140019A01105000089050000F10A0000B7F80530AF
S2140019B0B7F803202D48DB08934228BF13462B8533
S2140019C0152300216FF004046FF02702037007232D
S2140019D0817081714470C27003714471C271037268
S2140019E0092180E73A79FB782048134003F0030387
S2140019F0022B18BF01231722027043708370032145
S214001A0071E77A79B9791A4B42EA01229A80194A23
S214001A101A60D7F80320C3F8062093E716487D78A7
S214001A20818AFEF7C9FD081A80B2022838BF022054
S214001A300238BC1C80B2854284D80F482B4622460A
S214001A40314603B0BDE8F04FFFF7FAB80B4B9B7E6C
S214001A509A073FF577AF5B073FF574AFFFF742FC99
S214001A6003B0BDE8F04FFFF703BD00BF340B002006
S214001A70400B00209504000034130020D80A0020F4
S214001A80EFF3108072B670470048704700F04902C6
S214001A900E49D1F8942002F00702042A0BD8022A35
S214001AA00FD811D00A4BD1F80001C0F30420013042
S214001AB0B3FBF0F07047074B0548052A18BF0346EE
S214001AC0F1E74FF40043EEE7034BECE700400E402F
S214001AD0C0EA210160F5900000F0490208B5FFF762
S214001AE0D7FF044BD3F80831C3F308230133B0FB08
S214001AF0F3F008BD00400E4038B502460D46FEF72E
S214001B007DFDE8B122B90F4BD3F80031FFF7C0FFD7
S214001B10FEF774FDA0B1FEF787FD88B1094BD3F838
S214001B200031FFF7B5FF084B402204461A610DB19D
S214001B30FEF76EFD20460021BDE83840FEF7D8BD12
S214001B4038BD00BF00400E4000300E40044B054A32
S214001B509A60D3F8882042F47002C3F88820704751
S214001B6000ED00E00000000008B5FEF753FB7047EC
S214001B7047F6FF739A42F0B56CD006296CD8374BFF
S214001B805B5C022B68D8364D05EBC304DE00A178FB
S214001B9015F83330012938BF0121012B13D1E07825
S214001BA00025401A854202D30844C0B2F0BD431B4C
S214001BB0A0EB5303666836F913609642CCBF03F178
S214001BC0FF301D46EEE760680028EFD0B0F9004011
S214001BD0A24204DCB0F902409442B8BF144683889F
S214001BE0FF2B04BFB0F90630B0F9087035440FBFBC
S214001BF001220022C82328276E781B1B93FBF7F3CD
S214001C0013441BB29E4201DD002B01DA731E1BB289
S214001C104FF47A7C00EBC3055F1CEA88AD6814FBC2
S214001C2002521D463BB222EAE2729E4202F15C027A
S214001C30B2FBFCF204DD00EBC307BF88BA42E9D969
S214001C4000EBC5039888904228BF1046884238BFEC
S214001C500846AAE7FF20A9E70020A7E7D8940000D7
S214001C60600B002038B5C0F30323013B04460D4645
S214001C70092B11D8DFE803F0053611103A312C1085
S214001C801D191C4BC0F3043403F1424303F58013C3
S214001C9004EBC304A400256038BDFFF71FFFFEF762
S214001CA0CDFCC4F30434144BEEE7144BC0F30434F9
S214001CB0EAE7134BC0F304344FF480320D49D1F8F1
S214001CC04401C007E0D4D1F840011042FBD1DBE765
S214001CD00C4BC0F304341022F0E70B4BC0F3043473
S214001CE00122EBE7094BC0F30434CDE7084BC0F301
S214001CF00434C9E700400E40B8400E4050410E4044
S214001D00F0400E40E8400E40E0400E40C0400E401E
S214001D10B0400E402DE9F74FDFF82C91464E99F86B
S214001D200040019107461546002C41D1434ADFF892
S214001D3014A1D2F8F83042489BB29B02A3F5805318
S214001D40CAF80030D2F8F8309BB29B02A3F50063C5
S214001D500121CAF80430FFF785FFDAF800000821F1
S214001D600430FEF783FBDAF800301B68984208BFA1
S214001D70DAF80030DAF8040008BFD3F804B04FF001
S214001D80080100F104000CBF0124A346FEF76EFB19
S214001D90DAF804301B6898423CD1DAF804305C6804
S214001DA05C4594BF002401240123347089F8003078
S214001DB096F900305A1C29D0224A52F8233003F1F3
S214001DC00C094C464FF6FF7AC4F30A030833B3F502
S214001DD0006F1BD2A688564518D094F806B0201D72
S214001DE00BF10401FEF742FB22689042D84601D16F
S214001DF0B74212D008F1030808F4FE7808F1080884
S214001E00444489EA0403B3F5006FDDD34FF0000BBA
S214001E1058460CE0013C64B2C6E72B785B45F5D328
S214001E2001985A4604F1080107F0BCF9012085F82C
S214001E3000B003B0BDE8F08F100000200081E00F76
S214001E4000650A00640200206C0200202DE9F04FB5
S214001E50012891B004D00024204611B0BDE8F08FD0
S214001E608A88002A00F01282A54F97F800A0BAF1DF
S214001E70000F00F00D82A34D2C78002CECD1A24B65
S214001E8009681C78002CE6D1A04E306802EB0008EA
S214001E90B8F5806F02D982242C70DDE7DFF88492D3
S214001EA0484407F07FF9BAF1020FC6F8008039D02F
S214001EB0B8F1030FCFD99648FEF7E6F90178D9F8BE
S214001EC000204368012945D1190E012903D1C3F327
S214001ED007430A2B46D98F4B9A4240F0DD80836831
S214001EE0DA033DD502233B70FEF7BCFD8A4BD3F8E0
S214001EF02828A2F17E63A3F58433B3F5104F0BD2E6
S214001F00126BA2F17E63A3F58433B3F5104F03D2B0
S214001F10936809A900209847804B099A1A60804B5D
S214001F200A9A1A60DFF80C92336899F80020082A9B
S214001F3001D0402A4ED1DFF8F0817948D8F8001059
S214001F40006803F0030ACA18A2EB0A0282420BD901
S214001F508324A1E76F4CA2420CBF862484249BE70F
S214001F60862499E7882497E76C4ADFF8CCB117688F
S214001F70DBF800001F440F44A7EB0A0727F4FF67AF
S214001F8027F00707874209D9391A00F50060FEF7DF
S214001F90E5F908B185247FE7CBF800703168D8F8FA
S214001FA00000A1EB0A01FEF791FC3268D8F8003079
S214001FB05649A2EB0A02074613445A48C8F80030AE
S214001FC0FEF7FEFE002FE5D199F80030002B7FF4D7
S214001FD042AF01E0002A61D133687F2B7FF63BAF2A
S214001FE0DFF84881DFF854B1D8F80000F0B94A4B62
S214001FF0D3F82878A7F17E63A3F58433B3F5104FA2
S2140020000ED20A9009A8FEF73FF90A9B1A0E74D062
S214002010012A03D1C3F307430A2B6ED9BB6B98473B
S214002020CBF8000007F08CF9C8F800003A4FD8F853
S2140020300000D7F82828DBF80010A2F17E63A3F58D
S2140020408433B3F5104FA5D2936A98470028A1D1E0
S214002050D7F828783268D8F800A00392A7F17E63F4
S214002060A3F58433B3F5104F16D2079006A8FEF7F3
S2140020700BF9079B190E0FD00129039A03D1C3F35E
S21400208007430A2B08D905AB00937F6B254909AB9C
S2140020905046B847002853D08424FDE622490A68F3
S2140020A01A440A60214A10681B4AD2F82818A1F17F
S2140020B07E62A2F58432B2F5104F05D31349194853
S2140020C01A46FEF77DFE16E0CF6A164A1849B8474C
S2140020D032680E4907461348FEF772FE40F20323A5
S2140020E09F4203D1084A01231370B4E640F201234D
S2140020F09F423FF469AF8024CEE64FF4C0708FE76E
S214002100D50A0020D60A0020BC060020D00A0020EF
S2140021107C020020EB17A6030000E10FC406002097
S214002120C8060020D0060020CC0600209C02002016
S2140021308C020020D40A0020C0060020880200205E
S2140021409DF8243089F8003023B9059B13B140234D
S21400215089F80030FEF73CF9074658B3D0F834A0AB
S21400216099F80030002B3FF476AE00220692042247
S2140021708DF8132006A90DF1130235200393FFF7FF
S214002180C9FD069AD30719D5039B082B14D0BAF1BC
S214002190000F13D0534610220CA903F12800039316
S2140021A007F0D6F820B9039B0A9A1B6A9A4205D80C
S2140021B0892471E68246D3E7364BECE797B14FF4B5
S2140021C000613846FEF7CAF800287FF4E3AE2AF42A
S2140021D0FF604FF4006120F00700FEF7BFF800280C
S2140021E07FF4D8AE99F80030082B01D0402B0FD1E1
S2140021F0294B2A4A186820F4FF6323F007034FF49C
S21400220000611360FEF7AAF800283FF424AEC1E68A
S214002210234F244BDFF89C907B60D9F82828D8F809
S2140022200000DBF80010A2F17E63A3F58433B3F55B
S214002230104FBFF4AFAE936A984700287FF4AAAE5B
S214002240D9F82828D8F800003368A2F17E61A1F5F5
S2140022508431B1F5104FBFF431AF3946D2F82C8037
S214002260114AC0473268114907460F48FEF7A8FDD5
S21400227040F203239F4203D10D4A01231370EBE57E
S21400228040F201239F423FF4E6AD34E70D24E3E538
S2140022908124E1E508950000C4060020C006002061
S2140022A08C020020DD100000D0060020D00A00209E
S2140022B0BC0600200000E10F00F00F0001380728E0
S2140022C050D8DFE800F00415244F34384F402B4B2D
S2140022D0D3F8943003F00703023B052B06D8DFE85B
S2140022E003F049243F0305430B2070470520704741
S2140022F0224BD3F8800000F0070002283DD00428C7
S21400230036D0012808BF032018BF012070471B4B9A
S214002310D3F8843003F00703013B032B03D8DFE830
S21400232003F0041F25270120704703207047134B36
S214002330D3F88800DFE7114B1B6F13F0010F0CBFBB
S2140023400720092070470D4BD3F85C3103F03003AB
S214002350202B0FD0302B0FD0102B08BF0720D3E731
S21400236002207047002070470C20704706207047F8
S2140023700A207047042070470820704700400E402F
S2140023800428F8B56FD8474B13F800C0464B1D5CC1
S214002390464B33F81060464B33F81040454B002947
S2140023A06DD0022860D15C6A14F0300F5CD1424CCC
S2140023B0E46B5C6AE40705D55F6A27F0300747F0F0
S2140023C010075F623D4C3B4B25441E66AD002B68F4
S2140023D0002BFCD0002A46D06444A4002368002BBF
S2140023E0FCD002283FD100293DD0324B5A6AD10793
S2140023F03CD54FF48062C3F8A82020225A665A6A59
S21400240012F0300F0CBF4FF440024FF40002D3F826
S214002410901032EA0101FAD1520201D5D3F8A03069
S214002420244D012200210220D5F89C70FFF7A8FF5A
S214002430D5F890306B6A23F0300343F010036B62DC
S214002440C7F30A07296B1E4BFA0903320F2A03EA61
S214002450010328BF0F223B4343EA02732B632E6619
S2140024602368002BFCD0F8BD0021ABE75A6AD3F8EE
S214002470902002F44002B2F5400FF8D1CEE70121D9
S2140024801C66A940D3F890000842FBD1002AEAD087
S2140024900123084903FA0CF3D1F890201A42FBD125
S2140024A0E1E700BFA9940000A49400009A940000FD
S2140024B09094000000400E4000300E408004F21061
S2140024C000F8FF0F10B500211048FFF715FB104865
S2140024D0FEF7B4F8012211460220FFF751FFFEF77F
S2140024E0F3F8FEF795F80B4B02225A67FFF7D0FA7F
S2140024F0FEF7A4F8FFF7F2FA0446FEF795F8014651
S2140025002046BDE81040FEF7F3B800BF00F04902D1
S2140025100148E80100400E4000B962B6704700006E
S2140025202DE9F0410D4F06460D4614460CB9BDE8A0
S214002530F081EFF3108872B623462A4631463846B5
S214002540FEF77EFB03464046FFF7E6FF002BEDD086
S214002550E41AA4B21D440026E8E700BFA00D002040
S21400256013B5002301F10804ADF80430ADF80600F9
S21400257021461A4651F8080C083170B90BB1ADF86F
S214002580042004220DEB020101200834FFF7C8FFE7
S21400259054F8101C39B902B010BD51F80C3C1A445E
S2140025A092B20123E6E734F80C2C0020EDE7000099
S2140025B07FB50130002380B2CDE90101CDE90433B7
S2140025C06946044B009304200392FFF7C9FF07B047
S2140025D05DF804FB20110020EFF3108072B6704700
S2140025E0FFF79ABF064A074BD3F88039136F23F0DC
S2140025F0070303431367044B1888FEF7C3B800BFEE
S21400260000300E400000C6435C0B002000000000B7
S2140026102DE980487A4B5B685E05A3B024D44FF062
S214002620005300221A601AA8FDF72EFEFDF7D0FE12
S21400263008B3446BFEF716FA1C9B5D0740F1BC809E
S214002640FDF7C6FEFDF75CFE0446FEF7EBF994B117
S214002650FDF7BEFE0446FDF7BBFE6A4B9860236896
S2140026609D466368984706E04FF000531A68022AB2
S214002670D5D100221A60BFF35F8F624B5A6A22F4EC
S21400268080325A62D3F8942022F00102C3F89420D4
S214002690BFF34F8FBFF36F8F5B495C4F0A685C4D8B
S2140026A0C3F898204FF00050C3F89C005948C3F870
S2140026B0A000AF4202F1010008604FD07E1E731BDF
S2140026C043EA530343EA930343EA131343EA132309
S2140026D043EA13430133B3F5807F38BF4FF480736A
S2140026E05C422C4003EB040C674500F28780072B06
S2140026F0ACEB07074FF0010C8CBF4FEAD30E4FF040
S214002700200EB7FBFEF70CFA07F7013FFFB2361BA9
S2140027102D1BB3FA83F3B5FBFEF5B6FBFEF6664457
S2140027200CFA05FC07FA06F60CF1FF3CC3F11E0393
S2140027304CEA060C5B000CF0FF0C03F03E0343EA89
S2140027400C23304D43F0407343F001130232C5F8BA
S2140027509800C5F89C40C5F8A0300A60BFF35F8FAC
S214002760284B0522C3F894205A6A42F480325A62F3
S214002770BFF34F8FBFF36F8FBFF34F8FBFF36F8FD4
S214002780254B01225A64254BD3F8FC20244B120E0D
S21400279048D14AF6E851C3F89011D3F8981141F0A1
S2140027A00401C3F89811C3F89021D3F8642142F4C9
S2140027B00052C3F8642137E014B9FEF733F95AE73C
S2140027C0164AD2F8F8309BB2B4EB832FF5D2D2F883
S2140027D0F82004F1500392B2B3EB822FEDD82046D6
S2140027E0FDF7D6FD0028E8D0636913B9FEF71AF99D
S2140027F02EE79DF86830012BF8D121E75B006FE7E4
S21400280000500E4000ED00E0540B0020BC000020FD
S214002810BC0000203900011300000E400081E00FCC
S21400282000300E40012AC0D0844A136A23F44413B1
S21400283043F488131362A2F58042136843F480734E
S21400284013607F4BD3F8A42142F4F842C3F8A421C6
S21400285002229A639A6B02F00F02022A40F0048169
S214002860DA6C22F0405222F0010242F00102DA64F1
S214002870D3F8EC2042F44072C3F8EC20714A0F21E2
S2140028801180DA6E42F08072DA666F4BD3F88009F8
S21400289000B10420FFF7A6FE6C4B694FDFF8B88145
S2140028A0C8221A806A4BA0220F2000241A80FDF747
S2140028B069FF684BBB65CDE91244CDE91A44D8F8E8
S2140028C01832C3F307295FFA83FACDF87090CDF873
S2140028D050A0FE6CC6F30176224633461AA912A80B
S2140028E0FDF716FFD7F8EC50C5F3012522461BA9C5
S2140028F013A82B46FDF70CFF4FF41674A9EB0A023B
S2140029006243B2FBF4F252449145DDF868C0129976
S214002910DDF86CE01398C0F0A780AEEB00036343CD
S214002920B3FBF4F3C0182CBF012300238645C0F088
S2140029309B80002B40F09880ACEB01036343B3FB15
S214002940F4F3C9182CBF012300238C45C0F08C80FB
S214002950002B40F08980FC6D24F4FE4424F0020431
S21400296044EA0224FC65022ED8F830225CD0032EFE
S2140029705DD0012E14BFD2B2C2F30722120312F4A6
S214002980702F71D12E4CE36E23F470431343E3662D
S214002990314B022DD3F830224BD0032D4CD0012DD5
S2140029A014BFD2B2C2F30722120312F4702F5BD107
S2140029B0234BD3F8EC4024F470442243C3F8EC20B5
S2140029C05A6E814238BF0146E72922F4FF7228BFBB
S2140029D0E72122F0010242EA41025A66DA6B42F42B
S2140029E08062DA634AF6E852596B5A639A6FD407E4
S2140029F0FCD41B6C144A13F003032FD00123C2F837
S214002A00B43A0F4B9A6FD007FCD41A6C22F003022C
S214002A101A649A6F12F00102FBD10B480129C0F824
S214002A20B42A08BF5A631BE0C2F30742A6E7120E99
S214002A30A4E7C2F30742B7E7120EB5E700400E4020
S214002A4000300E405C0B00200000C6435A0B0020EE
S214002A50580B0020372110B70081E00FC2F8B43AB7
S214002A60C74B0122C3F89427C64CC74E1120FFF768
S214002A7023FC002102200122FFF782FC636A23F078
S214002A8001036362C14B0025C3F8A054A36A23F078
S214002A90070343F00603A362BD4BE362226BBD4B04
S214002AA002F07F6213432363BB4B6363FFF70AFDA9
S214002AB0BA4B304601211B68FFF71EF8FDF7B4FD40
S214002AC001463046FDF714FED4F80001C0F304209A
S214002AD00130B6FBF0F0FDF7B1FD012211460220F1
S214002AE0FFF74EFC636AAE4E43F040536362D4F881
S214002AF0C83043F00103C4F8C830AA4BD3F8D83026
S214002B00B365042404AA06A935208DF8104006955E
S214002B10FFF700F906238DF80F30069B8DF80E4060
S214002B2013F4803F07AC00F0538205232246B16DB4
S214002B3002F8011B013BFAD29DF8213063F03F03F7
S214002B408DF821309DF8223043F001038DF82230B5
S214002B50954B5C60954B964A9A6000274FF48071BF
S214002B605961C3E900221F82924A934B9348944DC1
S214002B701F82C3E900229A60596100F0FAFC90486F
S214002B80904C914E00F069FF0FCD0FC495E80F00F2
S214002B9084E80F008D488E4B036039468D4B4360AA
S214002BA000F08CFC74A3D3E900233060CDE9002349
S214002BB04FF0FF334FF0FF3200F029FF02224FF0B4
S214002BC0FF313068784C00F024FF0DF1680A94223B
S214002BD03C23CDE91A321C935146962330681D9348
S214002BE0CDE91E77209700F04BFD37467A493068CE
S214002BF000F022FF306800F0C6FFB4F9001057F866
S214002C00080B00F02EFF6468002C40F0FA8138466E
S214002C10FDF7E0FCB37B64F30003B3736F4BDFF8A0
S214002C20F4916F4D4FF0200883F8018383F80483F6
S214002C3083F8068383F8078383F8058383F808837D
S214002C4083F81D83674B5A220021184606F0B8FA0F
S214002C50A0F10A04644B636042F21072E26042F232
S214002C600153624A40F80A2C2381614A4FF490735C
S214002C703384012313700022C9F800201B222A8007
S214002C800DF10D0103AA3E208DF80C30FFF742F837
S214002C9011230DF10B020DA936208DF80B30FFF72E
S214002CA039F80DF10A02514639208DF80A80FFF7EF
S214002CB031F8002837D14F4B9DF80B2018681B7948
S214002CC01A908AF80430002A00F0A2811B2A28BF36
S214002CD01B22531D8DF80A300DA9531C0DF16D00F3
S214002CE08DF86B3006F05EFA12A8FDF773FC424AC8
S214002CF09DF80A3012882AF8032022A99A1C51FA55
S214002D0082F21298BDF84C1042F8200C22F81C1CD7
S214002D1003F1080222A951FA82F20933002102F8CF
S214002D20201C8DF80A3020230DF1090212A93A2042
S214002D308DF80930FEF7EEFF48B9304B5A8A1B7DF6
S214002D408DF84A300323ADF848208DF809302C4B17
S214002D502C4800224FF00208C3E900222A4B0360E9
S214002D6080F80480FDF744FE2848294B03601023B2
S214002D70037251E0AFF300800855005100000000D8
S214002D800000C64300400E4000F049020000C84361
S214002D902000050007450BD047A0020000300E407B
S214002DA0005008400081E00F58130020A00D0020BE
S214002DB0A00C0020A00B002034130020690345EC73
S214002DC088950000600B002098100020900B0020D3
S214002DD071130000800B00201200002000E100E0CC
S214002DE028110020C610002055555500D6BE898EE5
S214002DF05E0B0020ED930000F79300006495000042
S214002E004C1300203C0E0020FA930000E40D002036
S214002E10FD9300003013002080F80480FDF748FF83
S214002E20B148B24B0360B24B80F80480C36080F8B0
S214002E300880A0F81080CDE90038434690E80600E8
S214002E401430FDF769FD9DF80B10002900F0EB80AB
S214002E500DA8FDF757FFA748A74B03604FF01008D3
S214002E6080F80480FDF7C4FDA448A54BA54A03607E
S214002E704FF6FE7B08230372C260A0F810B080F8FD
S214002E800480FDF715FFA048A04A02600C220272DB
S214002E909F4AC260A0F810B080F80480FDF708FFD3
S214002EA09C489D4A02604FF0020B9C4AC260082371
S214002EB0038280F8048080F808B0FDF7F9FE984891
S214002EC0984B0360984BC3600123038280F804800C
S214002ED080F808B0FDF7ECFE9448954B0360954BE0
S214002EE0C3604FF6FE73038280F8048080F808B053
S214002EF0FDF7DEFE9048914B0360914BC3604FF6A2
S214002F00FE73038280F8048080F808B0FDF7D0FED8
S214002F108C4B8D4A1A604FF6FF729A809DF80A20F5
S214002F20202A05D8931D89486375514606F03AF95C
S214002F309DF80920202A06D8931D854884F83D3040
S214002F4012A906F02FF9FEF7C3F9227C617CB2FACB
S214002F5082F35B0963F30001237D617462F303036C
S214002F60B27B02F0010262F386132375637D0BB910
S214002F7006236375774BB988B068C4F81600998045
S214002F8094F83C30042161F3030362F3861384F85B
S214002F903C3094F83D3013B9062384F83D306E4B30
S214002FA0B068BA88C4F83E009A80FEF721FA6B4EE5
S214002FB06B4B1B782BB1DFF8B8814046FDF7FCFA67
S214002FC0A0BB684A136923F00403136130BFEFE720
S214002FD00DF10F0221462C20FEF79CFE00283FF440
S214002FE0B9AD0DF10E0205A93C20FEF793FE18B10F
S214002FF09DF8140000F001009DF8223060F30003F5
S214003000A4E52068B060A288A379BB71BA8005E603
S21400301008238DF80A30544B1A889B78ADF86D203B
S2140030208DF86F3060E65048032112E7EFF3108406
S21400303072B600231A460DF111014046FDF79DFDBC
S2140030402046FFF769FA9DF8113013B10023C9F83E
S2140030500030D9F80020EFF3108472B6C2F5017381
S2140030609BB232440DF111014046FDF786FD034642
S2140030702046FFF751FAD9F800201A44032AC9F867
S21400308000209AD93488231D9A4296D307D8708890
S21400309004284FF0000306D0062800F0AB8100237A
S2140030A0C9F8003089E732796B8004F1FF3A122ABA
S2140030B01FFA8AFA5ED8012A5FD9931E2B4F102B6F
S2140030C05BD8DFE813F05C005A0072005A008B00F1
S2140030D05A0022015A00BF005A005A005A005A00ED
S2140030E05A004F015A00EF00B80D0020009400006F
S2140030F07A9500006C100020039400001410002045
S21400310014940000D90D0000BC0F00202594000088
S2140031104D1E0000640F00203694000059950000F4
S2140031200C0F00204794000058950000B40E0020B5
S21400313058940000DD0200005C0E00206994000038
S214003140490400008C1000204C130020D8100020EA
S21400315000110020D2100020FA1000202C110020B0
S2140031605413002000ED00E0F3930000201100202F
S21400317034130020522A00F0B580062289E0BAF106
S214003180020F40F03581B6F805400022B4F5007F06
S21400319028BF4FF400740323114650463B70A7F82F
S2140031A00140FFF705FA2C8079E7BAF1040F70D1D9
S2140031B0B6F80540A0B2FDF73FF860B1027A7C8011
S2140031C0022A4FF005010CBF012302233970416823
S2140031D07B70032057E06C800A225AE0073CDFF839
S2140031E038B2CDF800B0A4B20194B6F80710B6F81D
S2140031F005000223ABF10202FDF7A4FD4FF6FF7AAD
S2140032005045044604D17368C3F30F236B80E3E78D
S21400321000230130CDE90033ABF102020223514610
S21400322080B2FDF78FFD50451CBF00F1FF3080B225
S21400323007233B70A7F80140A7F8030000221146B9
S214003240042020E0BAF1020F40F0D280B6F805B0B4
S2140032501FFA8BF42046FCF7EFFF002839D0037BDB
S214003260990713D52B880DF11202013B09A92046B8
S214003270ADF81230FDF7AAFB024670BB0B23BDF873
S214003280122009993B70FFF793F908E75246A5F814
S21400329002B05D4B30796988587001241C705980E3
S2140032A01A71CBE7B6F805B01FFA8BFA5046FCF752
S2140032B0C3FF70B1037B1A070DD5E21E92B25349C5
S2140032C05046FDF74DFB024638B913233B700146C6
S2140032D0D9E70122DBE70322D9E77368C3F30F239C
S2140032E06B80D6E7B6F805703846FCF7A5FF0028D1
S2140032F03FF4D5AE037B5B077FF5D1AEE21E4349B4
S21400330092B23846FDF72CFBC9E6631F9BB2022B30
S21400331001D0102B6CD10022CDE90022DBB23C4A52
S214003320B6F80710B6F80500FDF70CFD4FF6FF736C
S214003330984204463FF467AF2B880DF11202043B17
S21400334009A9ADF81230FDF741FB024608B16C80C2
S2140033509FE7BDF8122009997C8009233B70931CD7
S2140033607B7036E7053CA4B2022C01D0102C3FD16E
S2140033704FF0000BCDE900BBE4B2B6F80710244AC4
S214003380B6F805002346FDF7DDFC4FF6FF718842D0
S21400339082463FF438AF013023461D4ACDE900BBD4
S2140033A080B2FDF7CFFC2B884FF6FF7188420446AB
S2140033B0A3F1060318BF00F1FF340DF1120209A9AC
S2140033C0504618BFA4B2ADF81230FDF7FFFA024619
S2140033D010B1A5F802A05CE7BDF812200999A7F87D
S2140033E002A011233B70131D7B70BC8005204AE7AA
S2140033F004224EE7CDE90B33064B099309A90223B5
S2140034000A93FFF7ADF84AE620110020331100209A
S2140034103511002018000020371100200D4AD2F880
S214003420E430D2F8E0109B0003F03C03C1F38111B6
S2140034300B438370D2F8E03003F03F034370D2F8BA
S214003440E830D2F8EC2003F0F003C2F30312134383
S2140034500370704700FF0FE0FEE7000008B5FEF7B8
S21400346075FB124B12498B4212D3124B12490020A5
S2140034708B4218D3FCF794FE186850F82240586820
S21400348040F82240013298688242F5D30C33EAE7CE
S2140034900022F8E71C6844F8220001325C68A24269
S2140034A0F8D30833E4E70022F8E700BFA4B600002C
S2140034B0B0B60000B0B60000B0B60000F8B50D46D5
S2140034C010B900242046F8BD0E4F3E68002EF8D1F5
S2140034D000F052F804460028F3D0386000F0A8F850
S2140034E0204600F074F838B130463E6000F0A0F890
S2140034F0204600F067F8E4E7002DE3D02046A84712
S214003500E0E700BF601300200846114600F0A2B8AE
S21400351010B504F01DFF20B9024BBDE810401B6833
S214003520184710BD2800002010B500F074FA20B926
S214003530024BBDE810401B68184710BD280000204D
S21400354070470000431E033306D8044B984228BF3A
S2140035501846642838BF6420704700BF40420F00FA
S214003560431E012B03D9031F5842584170470120C0
S214003570704700F065BE0000F8B50546FEF780FA15
S2140035800F4B1E68074626B93846FEF7C5FF344679
S21400359011E0B4688CB194F810C01CF0010F0CD187
S2140035A095E80F004CF0010C84E80F0084F810C07A
S2140035B03846FEF7B1FF2046F8BD3668E3E700BFA1
S2140035C0200000204FF4A472002105F0F9BD10B5CC
S2140035D00021044600F02EFA2046BDE8104004F014
S2140035E0C1BC000038B505460C4641B10B6833B186
S2140035F01B68013303D0CB680BB18B684BB900F066
S2140036001DFEBDE838404FF492724121002000F0C4
S21400361095BA084600F017FE0023044A85F8DC3009
S214003620C5E92343C2E9003338BD00BF6813002054
S21400363010B5044618B9054B054A136010BD03F0D3
S214003640D5FED4F89830002BF6D1F4E741350000CB
S2140036501C00002010B50C4603F006FF054B0021A9
S2140036605B68032098471CB104F09EFE0128FBD13E
S21400367010BD00BF2800002004F052B804F066B861
S21400368008B502460868FFF75DFF08604868FFF760
S21400369059FF48608868FFF755FF8860C868FFF7DD
S2140036A051FF0B69C860581C03D00B48834228BFE3
S2140036B003460B614B69581C03D00748834228BF5A
S2140036C0034688694B61FFF73DFFBDE80840886107
S2140036D0104604F0A5BC00BF40420F002DE9F84F8D
S2140036E0D0F8903006460F4613B1038B8B4246D077
S2140036F0D6F88CB0BBF1000F44D0DBF80830002BB6
S21400370040D0DBF80C1000293CD0D6F8A0A0BAF1C7
S214003710000F3AD04FF000094D46C84601E0DBF8EE
S214003720083005EBC50203EB82040135E389BB4292
S21400373016D8238ABB42304612D3B4F91230B6F9F3
S21400374024109942A04603EAE37255DD96F8D0109D
S214003750FEF70EFA337D834281464DD9DBF80C1016
S2140037608D42DCD3B8F1000F40D000234246194604
S2140037703046D0473783C6F8908086F8D990002028
S214003780BDE8F88F0320BDE8F88FD1465446524670
S21400379047F6FF7504EBC40803EB8808B8F80E304C
S2140037A0BB421DD8B8F81030BB4219D3B8F9122066
S2140037B0AA4202EAE27207D14FF0FF093783C6F841
S2140037C0908086F8D990DAE796F8D0103046FEF763
S2140037D0CFF9337D834281464246EFD9DBF80C10A1
S2140037E00134A14204D9DBF80830D3E70120C7E74B
S2140037F0002AFBD09046E1E7A046B6E72DE9F04761
S21400380082B004468946164604F0B0FD3B4D08B12A
S21400381000236B602B68D4F88CA0D4F890700BB1A2
S21400382053454BD04FF00008C5F8089004F0BCFD97
S214003830012836D12B68DAF800103A6813B11868F8
S214003840884246D0204604F0DBFAC5E900A7D4F843
S214003850A0508DF80760002D42D000220DF107031E
S21400386011462046A847204604F0B6F80546B8F1AB
S214003870000F00D08EB1B5FA85F040F2DE32400976
S214003880332100F05BF93146204604F0C5FA1C4BA4
S21400389005461B68394620469847284602B0BDE8CC
S2140038A0F087012003F0E0FD164B00215B68032043
S2140038B0984704F079FD0128FBD1BBE76B68002B25
S2140038C0B0D0BB42AED1AB68994514D04FF00108DA
S2140038D0AAE7696811B109689142B6D05968B1E79C
S2140038E0217D94F8D930994228BF194632462046A1
S2140038F004F008F8B7E70025CFE700BF68130020FC
S2140039001C00002028000020F8B505460E46FEF7ED
S214003910B7F8314607462846FFF7E0FE044620B1D2
S2140039203846FEF7F9FD2046F8BD04F01EFD224697
S21400393031462846FFF762FF04463846FEF7ECFDA0
S2140039402046F8BDF8B505460E46FFF74BFED5F8FF
S2140039508C307BB15B696BB101F0CCFBD5F88C3059
S2140039605B691B1A584240F26B124FF042015841F5
S21400397000F0E4F8F76800224FF6FF734FF0240CCF
S214003980D0B2B84208D31C4621462846FFF7BCFFF3
S21400399000F05EFC2046F8BDB1680CFB0011CC8937
S2140039A09C4202D2002CEFD023460132E8E7008B7F
S2140039B070470A7838B505461046FFF7D1FD60B166
S2140039C04C782046FFF7CCFD38B12243530704D489
S2140039D02846BDE8384003F0CDBE012038BDFFF7CD
S2140039E0E8BF10B504460878FFF7BAFD58B14A7824
S2140039F01046FFF7B5FD30B1042A04D02046BDE8D6
S214003A00104003F0EFBE012010BDFFF7EABF03F041
S214003A10ABBC03F005BE70B504460D461646FFF770
S214003A2073FF30B9324629462046BDE8704002F0A2
S214003A3051BC70BD04F0A8BC38B5044648880D4695
S214003A4000F0FFFBD4F8A0302BB929462046BDE88D
S214003A50384003F0FDBE022038BD00F0F3BB03F093
S214003A60B1BF73B5044600200D4600F0EAFBD4F85B
S214003A70A06069462046FFF7F2FF5EB99DF8001089
S214003A802A462046FEF774F80146204603F066FFF5
S214003A9002B070BD00231A4629462046B047F7E715
S214003AA038B505460C46FDF7EBFF2B6B1C40EB6A62
S214003AB02343EB62FEF730FD211E18BF01210020D4
S214003AC0490238BD04F033B904F052B907B54FF4D3
S214003AD000730A49ADF806300DF10602FFF7F4FF51
S214003AE0BDF80630B3F5007F05D1022808BF0020D8
S214003AF003B05DF804FB0120FAE700BFC014002005
S214003B000846114600F0C0BA04F0FEB838B50446C0
S214003B10154609B104F04AF925B12046BDE83840FB
S214003B2004F046B938BD0000024B1960024B18601D
S214003B30FEE700BF24000020C016002008B550B9DC
S214003B400548064B01601A60054B1A68054B1A605B
S214003B501868FFF7E9FF08BD24000020C4160020FF
S214003B6060130020C0160020437C03B108470220E3
S214003B70704710B5044604F0CFFC20460321BDE88C
S214003B80104003F04BBCFFF7F4BF00000149FFF7FD
S214003B90EBBF00BFED8400000149FFF7E5BF00BFA3
S214003BA0C184000010B5437C0C4693B149680022DE
S214003BB004F0BCFC206890FAA0F0000A01F0ECFBD0
S214003BC0A17A2089002281F0010104F00DFD002079
S214003BD010BD0220FCE71FB5CDE90012ADF8083095
S214003BE069469DF818308DF80A30FFF7DBFF05B000
S214003BF05DF804FB00207047002070472DE9F74F62
S214003C001C469DF830300193036803F00703063323
S214003C1001259D400646174605F1FF380B46A1B123
S214003C20416804EA080BA5EB0B0A41F0005952451F
S214003C3009EB0B0114D95246184605F0B3FA7A1B65
S214003C405A444946504405F0ADFA019B2BB13C441A
S214003C5048EA050804EA0804F46003B0BDE8F08FFB
S214003C601846F0E70D4BD3F8E020D20314D50C49E4
S214003C704FF48032C3F8E820C1F8EC209A6BD1B23A
S214003C80C2F3072299679A6704229A6700229A6706
S214003C909A679A679A679A67704700BF001008404D
S214003CA000100846F8B50C4C0D4617460646FDF7BC
S214003CB0E7FE0123A362042327606660A560C4F8BC
S214003CC0E830064B4FF48072C3F88021FEF724FCE0
S214003CD00DB10223A362F8BD0010084000E100E029
S214003CE0054B1860054B01229A6540F6FF72196372
S214003CF058635A65704700BF5017002000100840F0
S214003D002DE9F04F042A83B0054639D90B78836134
S214003D104B7883618B788361CB7883610068D5F8B4
S214003D2008B06E6800F007000123063003FA00F8BA
S214003D3008F1FF3909EA0B07A2F1040AA8EB07020B
S214003D40924501F1040446F000560DD8F0192146BC
S214003D50524605F027FA0AEB0B0248EA09031A4016
S214003D60AA6003B0BDE8F08F2146F019019205F075
S214003D7019FA019AA118AAEB080230463A44E8E775
S214003D80013A032AEDD8DFE802F00B08050211F825
S214003D90013B836111F8013BAB6111F8013BAB615C
S214003DA00B78AB6103B0BDE8F08F00BF37B50025D8
S214003DB000951446FFF722FF204603B030BD0000F2
S214003DC038B50C46104B1546014668B10122C3F8BB
S214003DD0B8200E482246FFF793FF1DB10A4B042277
S214003DE0C3F8B820002038BD64B1D3F89C20A242A6
S214003DF084BF0122C3F8B820C3F898400222C3F853
S214003E00B820EAE70122FAE70010084090100840C0
S214003E1010B5FDF735FE184B184901229A65C3F810
S214003E2088201A66164A5A660722C3F884200A8033
S214003E30144900220A804FF4A021C3F8E81003F1C9
S214003E40C0630446C3F8EC100F4B1A600F4BD3F850
S214003E5088305B020AD50E4B18680E4B4FF4800272
S214003E60C3F88820416BA43001F0B2FA2046BDE8C2
S214003E701040FEF751BB00BF00100840CE160020D1
S214003E80D0160020CC160020C8160020004008409F
S214003E9060130020004008440D4B07221A800D4B8B
S214003EA000221A800C4B0121C3F8B810C3F89020EA
S214003EB04FF40052C3F89400C3F8B420074BF02226
S214003EC01A6403F10073A0221A64FFF7A1BF00BFB3
S214003ED0CE160020CC160020001008400000084433
S214003EE02DE9F041044688B1394E3A4FFDF7C8FD3A
S214003EF03388394A03F07801032C054603F07F0C1B
S214003F00114453D13C6824B9FEF706FB0320BDE8F4
S214003F10F08124F00104386820F00100A0424AD164
S214003F2000223A6022886FEA42426FEA52428C428E
S214003F30228036D1294CDFF8B8C02788ACF180083B
S214003F403A46083A92B201F10800604528BF40465A
S214003F50082A04D9B0F900E0BEF1000F36DB228053
S214003F603B440C8888781E499B1ADBB2C4F30C04C9
S214003F70CC6300F007003380CB66C1F88420FFF7DF
S214003F8071FE04280DD1174BD3F88830164B1868ED
S214003F90164B4FF48002C3F88820416BA43001F022
S214003FA017FA2846FEF7B8FA0020B0E7601E012888
S214003FB098BF0C46AFE7094862440088A21A48BF7B
S214003FC0803208389042ADDC28469DE70146B8E7C7
S214003FD0CC160020C8160020D0160020CE160020D2
S214003FE000100840004008406013002000400844CD
S214003FF0501700200E490F4B0A881B880E481344A2
S214004000073B03F0780303440832987892B20A809C
S21400401000F0070009490428C1F8842004D101F5FE
S21400402040514A681203FCD4054A1360704700BF2B
S214004030CE160020CC160020D01600200010084017
S214004040C816002010B5054C206828B1C30701D457
S214004050FFF746FF0023236010BD00BFC8160020F0
S214004060084B4FF48032C3F8EC2003F17C43C3F8CE
S214004070E420D3F88030C3F30C03782B01D8FFF785
S214004080F1BD7047001008442DE9F84304460E467B
S214004090FDF7F6FC504B514D1A882D888146504846
S2140040A002F07801032C02F07F03014417D14D4C37
S2140040B024688CB92A44073A02F07802841803442C
S2140040C0E31A48BF8033AB4210DB4846FEF724FABB
S2140040D000242046BDE8F88324F00104EFE7012C15
S2140040E002D0022CEBD1083D0C46E8E7002E41D06A
S2140040F08C423D4942D1D1F83C800A6B02F007025F
S214004100063201279740D1F88020C2F30C029A426B
S21400411047DDB4F900302588002BD6DBA378C5F33D
S2140041200C0503F007037A1EA5EB08053A43052B9A
S214004130337005EA02052CD82DB2E84340F2364229
S2140041400421C00FFFF7FAFC7580E378274A337422
S21400415012687B1E03EA0803D118B160A9B213FAED
S21400416085F5BD4289BFFF1A0023B780F2609CBF69
S214004170B180F3604846FEF7CFF9AAE7A4F108023B
S214004180824238BF04F17802B2F80080C8F30C0807
S214004190B3E7174BDB6C003B18BF0123A5EBC30549
S2140041A0CAE78B6B7A1EA3EB08033A431A40114BFF
S2140041B015B25B686AB9C3F30363D91E4B424B4121
S2140041C0DB0033700B4B7280D3F89030C3F30723B9
S2140041D0BCE70823F5E700BFCC160020CE1600206B
S2140041E0D0160020C81600200010084050170020E7
S2140041F00000084000400840431C08D0044AD2F89B
S2140042003C311B0C1B0480B20343C2F83C317047A0
S2140042100040084038B50D6804462846FFF7ECFF16
S214004220D4F8903043B15B6933B1013504BF6FF009
S21400423001020A600A681A60002038BD04F095B8CA
S214004240704770477047A62231210120FFF776BCE1
S214004250704738B50D46044600F04CFFAC4042F2BD
S214004260107364095C436423B0FBF3F0B4FBF0F016
S21400427038BD0000034B1A689B88026083800020CC
S214004280704700BF3A0000200F4B0628D3F888314D
S21400429004D183F40013C3F340507047022805D1BD
S2140042A013F4400F0CBF01200020704750B9074A96
S2140042B0D2F8D40010F0010005D083F48003C3F3D5
S2140042C0805070470020704700400E400081E00F8D
S2140042D00C4A5288B2F5E16F94BFC8225A2210B534
S2140042E094BF7824502490428CBF172210220A7064
S2140042F0054A0346107818B19C422CBF00200120C6
S21400430010BD00BF3A0000203300002013B5234B39
S2140043101B780E2B04463ED00DF10701FFF7D8FFA1
S2140043201E2C8CBF1E4C1F4C9DF807304FF0010210
S2140043308CBF01210021C4F8082170B1194A4DF63E
S2140043400174C2F804411B0202F1007243F44043B8
S214004350C2F80431144AA2F8D430134A134C92F827
S214004360D83023F00103034323F0020343EA41035A
S214004370DBB282F8D83024786CB923F0040343EA21
S214004380800323F00803B2F8D440A2F8D64043EAEC
S214004390C10382F8D83002B010BD00BF3A0000203A
S2140043A00040084600400844001F00215617002021
S2140043B0084B094AD3F88831DB4303F4FE1343F471
S2140043C00053B3FA83F30E33A3EB4313013B13708E
S2140043D0704700BF00400E403200002002280CD07C
S2140043E0062802D020B100207047054B1878704789
S2140043F0034B18780430C0B270470720704700BFE0
S21400440032000020022807D0062807D0003818BF40
S21400441001204042C0B2704701207047002070471C
S21400442030B51F23B0FBF3F35D1CEDB24FF0FF3445
S214004430C3EB4313AC40C01AE4430130E4B2C0B24D
S2140044401460086030BD00002DE9F7433A4E3B4F3C
S21400445096F8009015463A4AD2F8C820B9F1020FED
S2140044600446884607EA02071AD147EA006788F832
S2140044700000002372882B60B2F5E16F94BFC8225B
S2140044805A2227F47F57944227F008079ABF380A23
S21400449000F47F5043F6C870384303B0BDE8F0839D
S2140044A0284A1278904228BF144604EB83030B7008
S2140044B0F4B1013CE4B24FF030632B606A4601A9C8
S2140044C02046FFF7ADFFDDE9002347EA03671E4BF2
S2140044D098F800101B7847EA823747F47F5747F072
S2140044E008073BB90029194B18BF4FF07F43C1E7B7
S2140044F0164BE2E7164B1748B9F1060F08BF0346FE
S2140045002AB90029114B18BF4FF07F43B2E7B2FA21
S21400451082F2C2F11F02D2B29B5CDBB239B15A1EE4
S214004520D2B2FD2A05D81B0643F00403A2E7074BC8
S214004530A0E74FF07F439DE73A0000203F00C0E031
S214004540001F002132000020571700200400000B37
S214004550B883E00FB083E00F2DE9F3410446C8208E
S214004560FFF7D4FE2B4B2C4E18780E2801D0FF2CCC
S21400457005D1FF243470204602B0BDE8F081022841
S2140045802DD1072C204628BF072001284FF0000316
S21400459001AA0DF1030138BF0120FFF755FF0546BC
S2140045A01E4B1F4FDDF80480C3F85881C7F8C8506B
S2140045B09DF8034034702046FFF7A8FE194A4FEADC
S2140045C0082303F4E063127843EA1863A7F8D030B0
S2140045D0002AD0D1C7F8CC50A7F8D230CBE7A0B984
S2140045E0052C32BF002701270420201A3B4601AACB
S2140045F00DF10301C0B2FFF727FF4FF48003054615
S21400460037B1094AC2F80831CAE700273846ECE74E
S214004610064AF7E73A00002038000020004008402D
S214004620001F00215617002000400846004008449E
S21400463008B501F037F8094B094A002818BF1A4692
S214004640136823F47F115B0803F4FE130B43136017
S214004650044B4FF00072DA6108BD00BF004108400D
S214004660184108400040084008B501F01BF8064B0A
S2140046704FF4001228B1C3F800214FF000621A620E
S21400468008BDC3F81821F8E700400844014B186835
S214004690704700BF5C17002070B505460E46C0B2D6
S2140046A001F00F01FFF7D5FDC6F303110446C5F36D
S2140046B00720FFF7CEFDC6F303210444C5F30740E9
S2140046C0FFF7C7FD204470BD436C012B38BF0123A4
S2140046D02DE9F0479A46464B464F9B69464E474D56
S2140046E003F4E073A3F5C072804645485142514139
S2140046F002685245434A0FD114788C420CD198F880
S214004700D0C03C78A44507D198F815C03478A445A5
S21400471002D1A888BDE8F087B3F5C07FC0F800A036
S21400472011704AD1D8F8944024B12368082B58D980
S21400473094F838400F212046FFF78BFDBAFA8AF32B
S214004740002852D0B0FA80F29B1A002BC6BFD84081
S214004750C3F10F094FF00F09504501D909F1FF3990
S214004760234B2004C3F8BC0003F1806340F6FF72BD
S214004770C3F8B82003F100734FEA0921C3F8B81054
S214004780FFF78AFFA88000F0B5FC09F01F094FF478
S214004790FA7304FA09F45C4341F66A03B0FBF3F0DB
S2140047A00A23B4FBF0F45C43174B1C6098F8D03037
S2140047B03B7098F815303370ABE798F8D030062B7E
S2140047C006D1124B1B78002B0CBF9624C824B1E7E9
S2140047D0022B08D00D4B1B78002B0CBFB424F02402
S2140047E0A8E70024A6E73224A4E74FF00F09B7E7AE
S2140047F00060084031000020300000203A00002011
S21400480034000020591700205C170020571700209E
S214004810FF290DD00F4B1048C3F850010B040905B3
S21400482001F0F87103F4E0230B430C49C1F8503152
S214004830FF2A0DD0074B40F2F711C3F850111301B1
S21400484003F4F87302F007021343044AC2F8503127
S21400485000207047004008440000F701004008466A
S214004860F8B5134B134E1F68134D384600F0ECFE98
S2140048703378C4B2A34201D12B78A3B1092C14D843
S2140048800E4B012C195D05D10D4B1B78022B01D167
S21400489041F0400101F00F0238460909FFF7B8FF62
S2140048A0002334702B700020F8BD0024FA21F1E7B5
S2140048B06013002055170020541700204C96000067
S2140048C03A00002038B5044600F0BCFB1422002154
S2140048D02E4804F075FC2E4B25781A782D49521B6D
S2140048E018BF01220A7022681A60C820A2889A801F
S2140048F0FFF70CFD284BD3F8C820284BFF21197072
S214004900274B2849062D03EA0203274A1AD14FF4FB
S214004910EE40C2F824014FF48A42C1F82421012255
S21400492043F08043C1F820211B4AC2F8C8301E4B12
S2140049300322C3F85821FFF793FF1C4B01221A707D
S214004940002038BD022D4FF007000ED1C2F80C0132
S2140049500620C1F80C011649C2F808114FF4404170
S21400496043F00303C2F80411DEE7C2F80C01052089
S214004970C1F80C01C020C2F8080143F08043812230
S21400498043F00403C1F80821CEE700BFC81F00218A
S2140049903A00002054170020001F00213800002095
S2140049A02800C0A0004008460040084458170020D1
S2140049B0C10040002DE9F0472D4C2E4B236000F03F
S2140049C099FB4FF4FA7307464FF47A76B0FBF6F687
S2140049D029482A4A7343190E1B02181841F1000190
S2140049E0002303F043FEA0F580730546A36220B9BA
S2140049F066222B21FFF7A2F801254FF47A726A434C
S214004A004FF0000A53465008310203F02FFE1C4BAD
S214004A1019601C4BB7F57A7F4FEA0568894604464D
S214004A2018604FEA152505D276222B215046FFF74F
S214004A3085F801264FF47A73A8FB030103FB0511E2
S214004A407308C01841F100010023324603F00EFE41
S214004A500D4B023419600D4B49F10009A40818608B
S214004A6044EA8974024B013C1C63BDE8F08700BF32
S214004A70005008400211010020A1070040420F002C
S214004A80701700206C17002068170020641700209D
S214004A90044B4FF00052C3F880211A60024B0122EB
S214004AA05A60704700E100E00050084038B5020147
S214004AB00A4B01259D500A4A4FF480738340536683
S214004AC00446FCF7DDFF074A1378A54023EA0503F2
S214004AD01370BDE83840FDF71FBD00BF0051084405
S214004AE000500840601700202DE9F04715460446A0
S214004AF088461E46FCF7C4FF022D00F0B880074625
S214004B00FDF76AFD6C4B6D4AD3F8189092F815A025
S214004B10DA6D5FFA8AFA520744BFD3F818900AF1A2
S214004B20010AFDF75DFD664B664A1B6811684FEA91
S214004B308A7CA3FB093213F1004301FB09CCD8F8A9
S214004B4000304CEB020C012D04BF01336344ACEB88
S214004B50030C08BFC8F80030BCF1804F0AF0030A07
S214004B60C0F09880584AD2F800C0584AD2F800E000
S214004B70514A23F04041106B4FF000480022ECFBF6
S214004B8001820EFB012282424FEA937381BF0133FA
S214004B900130121A03F00303A3EB0A03914588BF02
S214004BA04549DFF848C184BF096B03F1FF3303F0C2
S214004BB003030CF80430A2EB0900A3B1F10742BFCF
S214004BC0434B41F61F71D966B30742BF404B41497C
S214004BD0D966710742BF384B00211967330742BFB9
S214004BE0354B00211965344B04F1100103EB041E0C
S214004BF00901CEF80C2111225A5037499A694FF014
S214004C00010EA2EB090A0EFA04F8D3F85C900A78B3
S214004C105FFA88F848EA020282450A7026D34FF403
S214004C208072A24019EA020F20D11CF80400002866
S214004C303FD10DB3F0071A6608D5254B274941F634
S214004C401F7240F20110DA66C866DA66B10706D54A
S214004C501F4B22491F4A2248DA66C866DA66720780
S214004C6042BF204B01229A60330719D43846FDF71D
S214004C7053FC0120BDE8F0871B48240140F804E0FF
S214004C805A66FCF7FDFE14490B7823EA08030B70FE
S214004C90FDF742FC3846FDF73FFC0020BDE8F087F4
S214004CA0212000F03FF9044B4FF480325A6038461A
S214004CB0DDE71A663846DAE700500840C0170020DD
S214004CC064170020681700206C170020701700205B
S214004CD00050084400001F1F6017002000500846C0
S214004CE000000101004008400051084474170020ED
S214004CF01030034B0001185800F00100704700BF49
S214004D00005008401030044B01F46001000141F0EF
S214004D1003011950704700BF0050084038B5FDF732
S214004D205BFC084B084A9D69547DDA6D520748BF04
S214004D309D69E4B248BF0134FDF752FC284604F0F2
S214004D40030138BD00500840C017002008B52220D7
S214004D5000F0E8F8024B4FF480225A6008BD00BF0E
S214004D6000500840064B1B68434303EB8171054B1C
S214004D701B68A3FB003013F1004341EB00007047B3
S214004D80681700206417002008B5FFF7C7FFBDE8C6
S214004D900840FFF7E7BF10B50446FFF7BFFF8442A1
S214004DA088BF01F1FF31204601F00301BDE8104045
S214004DB0FFF7D8BF0D4A10B5146820F040430146EF
S214004DC04FF000420020E4FB0320094A126802FB71
S214004DD00300084B1B6B98424FEA917104D90133CC
S214004DE00131C01A01F0030110BD00BF6C1700208E
S214004DF0701700200050084038B50446FFF7C4FF7F
S214004E000546FFF7C1FF431BA342FAD338BD000097
S214004E103B4B082270B501210546C3F8C820394827
S214004E20394CFCF71FFF394B1D702378013B012BD3
S214004E300CD8237CE07B01229A400C21302313FB04
S214004E40001303F1884303F520431A60304B002219
S214004E505A677DB92F4A4FF6FF71D16702F100728B
S214004E60F821D1675D672C4B4FF08042C3F8942041
S214004E70002070BD636853B300F03CF9626800EB35
S214004E805203B3FBF2F3013B1B0243F0F803267810
S214004E902049224A022E1CD0032E1D484FF6FF75CD
S214004EA021D0012E27D143F00203CD67D367072315
S214004EB04367237CE07B01229A400C21302313FBBE
S214004EC0001303F18C4303F520431A6011E0F82326
S214004ED0DDE743F001034FF6FF70C867D3670C4B5E
S214004EE005225A67E5E743F00503CD67D36701233C
S214004EF043670B4BB8E7CD67D3670023F8E700BFDF
S214004F0000400E4600350A007C1700207917002066
S214004F10000008400000084400400844000008461E
S214004F2000400846044BD3F89430002BBCBF034B1C
S214004F30C3F88000704700BF0040084000000840EB
S214004F404FF0006318B1034AC2F894307047024A23
S214004F50FAE700BF004008460040084400207047BB
S214004F6008B5064B06491A684FF00450920004F044
S214004F7019F9BDE8084000F04FBE00BF7896000063
S214004F807C96000007B501A8FEF748FA134B144AB2
S214004F90C3F8442148F2E672C3F838214FF4086299
S214004FA0C3F834210F4AC3F8A0200F4A4AF63F41FF
S214004FB0916002F580424FF0C07191620022C3F802
S214004FC0FC200A4AC3F89C20094B7F225A6203F150
S214004FD0007323225A6203B05DF804FB00400840C9
S214004FE0C0E653517A27000F00300840806D6303F7
S214004FF0003008440F4B002210B5C3F88820C3F8D1
S2140050008C20C3F890200C4A0121D1605A6812F017
S214005010706FFBD14FF00452DA67012402F5FD529F
S214005020C3F880401A66054B1B689847044BDC6043
S21400503010BD00BF00400840004008464000002069
S21400504000400844034BFD22C3F8C8200122C3F8E1
S214005050CC20704700400E4638B5FFF7F3FF1B4BD9
S2140050601B481C4C1C490222C3F8C8201B4B1A685C
S21400507042B102EA0005A54204BF5D681560083328
S2140050808B42F4D1164B0222C3F8C820154B164AA1
S214005090D3F83C111160154AC3F8942000F0A0FB29
S2140050A0FFF770FF124B0322C3F8D820A3F5005376
S2140050B00122C3F894204FF46072DA604FF0407219
S2140050C0C3F8F820C3F8102138BD00BF00400E46D4
S2140050D00000FFFF00000840B081E00F0080E00FF6
S2140050E000400E4400400840440000200048F00005
S2140050F00060084608B5FCF7CBFC044BD3F810312B
S214005100C3F308230133B0FBF3F008BD00400E40A4
S21400511070B5044618B1284D2268531C00D170BDE6
S214005120C2F30063110C35F8130011F0FE0F93B2B2
S21400513043EA0043606818D00434CAB2022A2168E1
S21400514008D9D4E90160033AC3E9001698600C3424
S2140051500C33F3E704D16268C3E900120834DBE7D6
S214005160012AD9D104341960D6E7120F072AF5D8D8
S214005170DFE802F00704090D1013181DC04303F101
S21400518080631860EAE71A6842401A60E6E703F1AF
S214005190C063F6E7FFF730FEE0E70122824003F146
S2140051A0C063F2E70122824003F18063EDE71A68EC
S2140051B030EA0202FBD1D1E756960000024B0122EC
S2140051C0C3F89420704700BF00400846024B0122F7
S2140051D0C3F89420704700BF00400844024B4022AA
S2140051E0C3F89420704700BF00400844024B40229A
S2140051F0C3F89420704700BF0040084608B50C4B23
S2140052001B68D3F8943023B11A68022A01D9186AA9
S21400521008BDFFF76FFF074B1B6D024698B20028CC
S214005220F6D0C3F30743D2085343B3FBF0F0EFE7DF
S2140052306013002000600840064B5B68C3F30363FE
S214005240984206D1044A936B23F0F00343EA011117
S2140052509163704700400840001F002110B50446C7
S214005260FFF7CCFFC4F30113022B05D0032B09D0A4
S214005270012B00D1400810BDC4F3C4240134B0FB98
S214005280F4F0F8E78008F6E700F03003202B10B5BE
S21400529013D110F4E02FC0F302440AD010F4C01F5C
S2140052A0C0F3C423B3FBF4F418BF6400052C0ED877
S2140052B06408FFF7D3FF604310BDC0F382136FF09E
S2140052C012041C4104F00104C4F10204F1E70424B2
S2140052D0EFE700002DE9F0470E46FFF755FDDFF833
S2140052E0B090DFF8B0A080460025FCF7C9FBD9F8DF
S2140052F00430C3F30363012B07460BD1711C1AD08D
S214005300FFF742FDA0EB08053846FDF705F9AE426B
S214005310EBD80DE0052BF1D00B2BEFD0023B012B89
S2140053200CD9013602D0FFF72FFD3846FDF7F4F80A
S2140053301648BDE8F087FDF7EFF8D6E7DAF808304C
S2140053401A04C3F389140FD4013602D0FFF71CFDEC
S2140053503846FDF7E1F824B2A4F1C8006FF4FF73F5
S2140053609842B8BF1846E4E7731C03D0FFF70CFD5D
S214005370A0EB08056FEA84546FEA94543846FDF7AC
S214005380CBF814F5007FC2D0E6E700BF00FEFFFFB3
S2140053900040084000700840024B012218619A60E5
S2140053A0704700BF00200840084910B5D1F870319A
S2140053B040B11C464A68D1F870319C42F9D1C2F31C
S2140053C00362027003F00F0010BD00BF00400840EB
S2140053D0094BD3F8883001F0800103F480030B43B7
S2140053E009D1064B4FF400129A61837F1BB1044B20
S2140053F00122C3F8F82070470040084000600844C7
S2140054000060084610B5FCF73BFB084B1B680446DB
S2140054103BB1984728B1002200204FF4806100F08D
S2140054202DFD2046BDE81040FDF776B89017002009
S2140054302DE9F0411F4CDFF89080069F0646A2FB40
S21400544003502C1960F1000E9C46A0454FF0000357
S21400545073EB0E0E07D24FF4B4720E211846FEF709
S2140054606DFB02201BE00029FBD0C6F3130601EB00
S2140054705C04B4FBFCF4A4FB0646E40C44EA4634A5
S2140054800D4E34600D4C22600D4A914209D10D4AF2
S214005490A5FB025302FB00339B093B600020BDE8DE
S2140054A0F081C4040A46E80444EA553103F0DEF805
S2140054B03860F3E700C9E876981700209C170020AC
S2140054C000F049020A3BB2DF0046C32338B5164D4A
S2140054D02B780C4623B9154B1B6D03F03F032B703E
S2140054E0134BD3F894305B051CD5124BB0FBF3F08E
S2140054F040F24D534343A3F546430C3B584300F557
S214005500C91000F5556028B940F21B322B21FEF772
S21400551015FB01202B78084A5343B3FBF0F3002019
S214005520236038BD0220FCE79717002000300840B3
S2140055300040084000366E018096980070B5374CE3
S214005540374B256B374C1B682468ED024CBF1B1984
S2140055501B1BB3F1804F04D8002B3AD1324E1C46A9
S2140055600AE0B3FA83F4314EC4F10204E340304D4E
S214005570AB4201D901345B0803EB5605B5FBF6F5E3
S2140055802C4EB34234BF002601262403013D44EAD4
S21400559086242C430C60D8B1B3FBF0F1642400FBE6
S2140055A011336343984288BF01F1FF314808013840
S2140055B001390728204D214C4FEA510311D900210B
S2140055C029700621C4F894101B0243EA00131360E6
S2140055D070BDB3FA83F4D4F10204134EC6D500248A
S2140055E0C5E71029EBD068B1012129700621C4F85F
S2140055F09410134909780029E6D012490224C1F80C
S2140056009440E1E7012914BF0121002129704FF0E1
S2140056100601C4F89410ECD1D6E700BF003008406D
S2140056209C17002098170020E0673500C0CF6A005E
S2140056303FBE4025401B5F139417002000400844DF
S2140056409517002000400846084B5B6B03F00700E8
S214005650C3F3C20213F0380F18BF5043C3F38212CD
S21400566013F4E07F18BF5043704700BF0030084077
S21400567010B5044651B10B6843B15B6833B11A6884
S214005680032A03D99C6A640E204610BDFCF7F8F97D
S21400569001462046FFF7D8FF04460846FCF73CFFC5
S2140056A0F2E70000034BD3F8380180F01000C0F397
S2140056B00010704700400840174B4FF4002210B50A
S2140056C0C3F89420154C164BB0F1804F88BF1C468B
S2140056D0144BDA6CD2071DD51B6F134A04F5F4245D
S2140056E004F59074B4FBF2F4033CE4B203F0070351
S2140056F0A34202D02046FCF775FF0C4B1B784BB13B
S2140057000B4B4FF47022C3F8942003F1007324046B
S214005710C3F8944010BD00BF00400846E06735005F
S214005720C0CF6A0000300E4040420F00961700209F
S214005730004008447FB50446FCF7A6F91C4B064615
S2140057402C3358680093A37922683146FFF770FE21
S214005750054648BBA379012B14BF164916491022EB
S214005760C1F83821206815495843FFF7AFFE03AA51
S21400577002A93046FFF7E2FE0F4A43F6FF53C2F88F
S214005780A4300C4B0299C3F8A4104FF4EE611163D9
S214005790039A1A632068FFF78FFF094BA2881A62E4
S2140057A003F5405300229A63284604B070BD00BF3C
S2140057B0003008400040084600400844503008408A
S2140057C00000084008B5044B01221A70034B186805
S2140057D0FFF772FF002008BD961700209C170020D8
S2140057E0024B4FF48062C3F894207047004008468E
S2140057F00D4BD3F80421D3F8B030D2B2FF2A03D031
S21400580043F30743591C01D190221923074903EBA0
S214005810D37302EB6302022381F84630232381F818
S214005820472081F8453070470081E00F001F0021B7
S21400583040B10368012B05D90069034B002808BF57
S21400584018467047004870475C96000038B5054615
S21400585014480C46FFF7AEFA2DB1C30103EB55030F
S214005860B3FBF5F32360104A5368D80217D40F4BE6
S2140058701B68D2F8A810C3F3810311F4806203F109
S2140058800103C9B218BFDA00FF2906D00649D1F8CD
S214005890AC10490501D502EBC302626038BD002298
S2140058A0FBE700BF40420F00000008400020084011
S2140058B0084B1A68C117A2FB000310F1807002FBA8
S2140058C0013343F10003400E40EAC310803820EA5B
